:020000040800F2
:10000000A0C10020D1E7010805D8010807D80108E0
:1000100009D801080BD801080DD80108000000001C
:10002000000000000000000000000000C52D0108D5
:100030000FD8010800000000692D010811D801083F
:1000400005EA010809EA01080DEA010811EA0108B8
:1000500015EA010819EA01081DEA010821EA010868
:1000600025EA010829EA01082DEA010831EA010818
:1000700035EA010839EA01083DEA010841EA0108C8
:1000800045EA010849EA01084DEA010851EA010878
:1000900055EA010859EA01085DEA010861EA010828
:1000A00065EA010869EA01086DEA010871EA0108D8
:1000B00075EA010879EA01087DEA010881EA010888
:1000C00085EA010889EA01088DEA010891EA010838
:1000D00095EA010899EA01089DEA0108A1EA0108E8
:1000E000A5EA0108A9EA0108ADEA0108B1EA010898
:1000F000B5EA0108B9EA0108BDEA0108C1EA010848
:10010000C5EA0108C9EA0108CDEA0108D1EA0108F7
:10011000D5EA0108D9EA0108C52E0108DDEA01087F
:10012000E1EA0108E5EA0108E9EA0108EDEA010867
:10013000F1EA010819D80108F5EA0108F9EA01080D
:10014000FDEA010801EB010805EB010809EB0108D4
:100150000DEB010811EB010815EB010819EB010883
:100160001DEB010821EB010825EB010829EB010833
:100170002DEB010831EB010835EB01080000000010
:1001800039EB01083DEB010841EB010845EB0108A3
:1001900049EB01084DEB010851EB010855EB010853
:1001A00059EB01085DEB010861EB010865EB010803
:1001B00069EB01086DEB010871EB010875EB0108B3
:1001C00079EB01087DEB01082F53544D333246374C
:1001D00078785F66696C65732F73746D33322E6A3D
:1001E00070670000485454502F312E302032303088
:1001F000204F4B0D0A5365727665723A206C774931
:10020000502F312E332E312028687474703A2F2FDE
:10021000736176616E6E61682E6E6F6E676E752E9D
:100220006F72672F70726F6A656374732F6C776972
:1002300070290D0A436F6E74656E742D7479706544
:100240003A20696D6167652F6A7065670D0A0D0A4E
:10025000FFD8FFE000104A464946000101000001B6
:1002600000010000FFFE003E43524541544F523A08
:100270002067642D6A7065672076312E30202875DE
:1002800073696E6720494A47204A504547207638AF
:1002900030292C2064656661756C74207175616C01
:1002A0006974790AFFDB00430006040506050406AD
:1002B000060506070706080A100A0A09090A140EA5
:1002C0000F0C1017141818171416161A1D251F1ABC
:1002D0001B231C1616202C20232627292A29191F08
:1002E0002D302D283025282928FFDB004301070762
:1002F000070A080A130A0A13281A161A282828288F
:10030000282828282828282828282828282828286D
:10031000282828282828282828282828282828285D
:100320002828282828282828282828282828FFC0DE
:100330000011080103023F03012200021101031111
:1003400001FFC4001D0000010403010100000000C2
:100350000000000000000001020304060708050970
:10036000FFC4004710000103030203050506050151
:1003700004090500000100020304051106211231E1
:100380004107132251611432718191234252A1B16C
:10039000C108153362D17216243453174363829215
:1003A000A2B2E1F02544C2D2F1FFC4001B0101005A
:1003B0000301010101000000000000000000000135
:1003C000020403050607FFC4003311000202010402
:1003D00001030301060603000000000001020311EF
:1003E000041221310513415122617132148191A10E
:1003F000B1E106152352D1F13342C1FFDA000C03FB
:10040000010002110311003F00DA784F0364B84F76
:10041000015CA8C01281BA7E1280804C25C2780986
:10042000E1A808DA13B85481A9DC2808C352E14ACC
:1004300006C9C1A8087853B854BC294354A208C3BC
:1004400053B83D14AD6290447C8AB02BF07A23857A
:1004500059EED402A29DD33E113C4E959EF33881B5
:1004600023CB64037851C1E89B5F594B6FA7335688
:10047000CCC862F379C67E014368BAD1DDA0EFA88B
:10048000E66BC6718270E2A1B44A836B3826E0F451
:100490004707A2B5C08EED490542CF44C31AB863E1
:1004A000DD218D0A944C69AE8D5D31A63A3424A2CB
:1004B000E8D46E6ABCE8D44F8F7424A4E6A8DCC5E7
:1004C00075D1A89CD4053746A32D571CD5196202B7
:1004D000A39AA32D571D1A8CC6A30464A85A531CB3
:1004E000D07670C83CC79AB6E6A8DCC520D21DA657
:1004F000E8CFE552BEE96C8F14523B3244D1FD2760
:100500001EBFE93FAAD78BAB27859344F8A78C4938
:10051000139A5AE69E441E61680ED0749C9A72E546
:10052000C74E0BEDB393DD3BF01E6587E0B6D17689
:100530007E9670B21EE8C4D0842D671042108010E1
:100540008420042108010842004210801084200405
:100550002108010842004210801084200421080173
:100560000842004210801084200421080108420043
:10057000421080ECA013C04AD0A40365E21BC6065B
:10058000EC9C1A9C1A9E020181A9ED6A7809ED6A19
:10059000023E14E0D5270A50D5240D0D4E0DD93C4E
:1005A000353C35581186A7B5B84F0D52B19B75F93A
:1005B00020308ED5AF94B61D23586A9EE64950CEA2
:1005C000E630D9381ED76367077A1E8B919FAFF547
:1005D0003C7306C1A86E4E6B08EEC8A8772FDD6E7F
:1005E0005FE2C6BA48A1B7D34730E07925F18F3C26
:1005F000745CCC0907239AAB2F136845DAB6BC8E1E
:1006000069B86F355248D8F85C1ED610D6819E4026
:10061000633EBCD65366BB0ADB6FB419DE25A9FB6B
:1006200049240EF1711D8EEB4709A563389B2B8879
:100630009061FF00E17B965BA57501869DA43E2736
:10064000F8B1CF0B9DB17289DE969337945A8239F7
:100650006A2065748FA88D9867DAB89D97A72CD00B
:10066000D9EA23ADB335F0C78CB5D19CF012B550A3
:100670009DE4071D9D8056C9EC9337FBABED53E518
:10068000D139BCFC964C33637F067DD9FEA2BF5F97
:10069000EB1B0C6192D3C67ED67919BFCB0B664992
:1006A0000F038B720E3FF8561B51A82D1A2EAE2B3E
:1006B0005D03008E37B44F263DF793C9677200FC87
:1006C0004ADF76401E3E6169A5BCE1B305E96329B6
:1006D00014BBB4D31AB7C29381683314CC698E8D1E
:1006E0005C31EE91D1A02818D46F8D5E746A2746D4
:1006F00080A2E8D42F897A0E8D44E8D093CF746A13
:100700003746BD0746A274684941CD5196ABAF8DBF
:1007100044E8D082A398A2746AE39AA37350929B90
:1007200098BCEBE5A69AF16D9E8AB59C514BE5CD40
:10073000A7A10BD8735465BF34CE39441CB9A9ACFA
:1007400095360BC4F4156325A72C907291BD1C3F00
:1007500045E52E89ED134B3351D9CF7207B7D365D9
:10076000D03C7DE1F87E7C973CCB1BE295CC95A5F7
:1007700092332C703E60AF4A8B3D48FDCCD38E0641
:10078000A1085D8E608421002108400842100210FB
:100790008400842100210840084210021084008453
:1007A0002100210840084210021084008421002109
:1007B000084008421002108407693429004009E00B
:1007C0002F14DC006C9404E684F01580D685200993
:1007D000404F68403309E027613C3500C013DAD44C
:1007E000F6B54802018D6A91ADC109CD0A46842053
:1007F000E58FE2D0B0DCA85AD71E368F1371B1FE58
:10080000E1FA2E753CD75E7F13BA55D73B132E30D5
:10081000D3BDCFA6C974ACDF6F51D172238104E779
:100820009E70A1978F40D3D093857ED952FA6AB635
:100830003E33E2238493D3D579EA573581ACE17610
:100840005C798F2556748F66C437087F96C7491B1D
:10085000639EB5C78E4A8CF088C7E103F75996842A
:10086000BCD4D9629CD2BBD96AA6DBBFE6E60F45F1
:10087000AFB47E9BB95C2661A72D6D21C66578C794
:10088000D0755B3DBD9CDC8D109696E703E638C3C2
:100890005FE069F40EF3591A4DE11BB2F1968C96A4
:1008A0009EDD3DFA95CC9E58E794F8D9344EF187F9
:1008B000FA85B47B3DAEB90A46515EDC4BF8B861AF
:1008C0007B87BE0745CF36670B65DC50DF65ABB570
:1008D0004E4E1B31F1333EAE5BF74BD1DC5AC63284
:1008E000AEBA0B852821ED73B01CC3E60F556554D5
:1008F000E3C9CAC9C24B067E59B909BC2AD359C536
:100900000B5EDDF0003BA616AD49E5181AE4AC5AC3
:10091000985AAD39A99C2AC54AC5898E8D5B2D4C44
:1009200073548293A3513A3579CD51B9AA0141D17B
:10093000A8DD1ABEE6288C680A0E8D44E8D5F7B10A
:100940004259BA12507C6A1746BD17C6A07C684946
:1009500045CD50BDAAEBD8A1735082996EEB4D7670
:10096000CBA50D34C2FB42CCC529E1AA681EEBBA67
:100970003FE7D7D56ED73154B851415F493D2D4B34
:1009800003E099A58E6F5208C157AA6E0F28AC9646
:10099000E5839252AF6757D8E7D3D7DA8A09C12DDA
:1009A0006F8A37FE2613B1FD978ABD44F2B28CAD33
:1009B0006054210A480421080108420042108010B6
:1009C00084200421080108488054244A801084208F
:1009D0000421080109108054244A801084880542AB
:1009E000108010910805421080EDA013DA12809E4D
:1009F000D0BC7370009C02701B256842A0D0A4017B
:100A00000D0A468402009ED09C02780848D013C08C
:100A10004A027808488027009C027B5A80AB70A06D
:100A2000A6B8D14D4B5B1365A79816B98E1D08C1AA
:100A30005C7BDB4762B71D31533DD2CAD755DAE440
:100A4000797F76C6E5F034F9FA2ED0684D95AC3151
:100A50003849C1DD9E7C58C7CF2A84A3E6418DE288
:100A60004E0735DC59C608DF3E5859F691D1CD887E
:100A700032E17D600D1831D33BEF7ABBFC2DDDDA1E
:100A80008DBF4E556AF6D4DA6DB4EC9E9861F3C60C
:100A9000086B9DE78E591E6B0FACA56BDA4CCFC06F
:100AA0002B35B6E7889B2AAB0B7488E0BC471C9BB0
:100AB0006191B300003006392F460D60E735F13003
:100AC0008746F04107A85815EE36465C22980C740C
:100AD0002BCEB7573C3CB41E09072246C551451DD5
:100AE0005B33BBA557F34A3347717663CFD84CEFDE
:100AF00011889FBAEF31FA297B3ED6572D2F766D9C
:100B00008EE327FBB35C430CA32037FB4FECB136DD
:100B1000DE6A1A3866687B391DBA2F49820BFD9848
:100B2000C6FC32B690E6097EF0F4F82D54D8FA915E
:100B3000C2C82ECEA0D21AC68EAE36C8D797539D45
:100B4000B8DBE203CF38DC7CD6706A219694D4D22D
:100B5000E27675EEF7207C170958B53DCACF50E113
:100B60004F3C903DAEC3980E0710E656E5ECF3B44B
:100B70007A9AAAB10F07753B864BE33C21DF16F545
:100B80005A9D4A7FA4E0D1BFA8AE1495EE959493E8
:100B9000B647C4712301F134FA85670B55475D05EB
:100BA0004EABFE630CAFA7ACE10D7B98DF0BFD1CD9
:100BB000B635B2E7ED01AD9F67E367742A93A9C428
:100BC000A345D7354642B3C23984D2D5CCA959CD35
:100BD0005196AB45A9AE0AC460A8E6A8DCD56DCD98
:100BE0005196A905473142F8D5E73546E628079ED4
:100BF000F6289CC57DF1A85EC424A0F8D577B17A0B
:100C00000F6A81EC424A2E6A8CB15C7B144E6A03F7
:100C10005D76BDA67F9DE9F3594CDCD75003234890
:100C2000E6F663C4DFA6FF0025CF23E18C1C7A82A1
:100C3000BB19ECC82300FA15CD3DA9E9BFF67B53DB
:100C4000CA216114555F6B01E80756FEEB669ACC2A
:100C5000ADACE162F730F4244F113DDEEB1C7E4B6E
:100C600061CD4252FD2350A434F363FA327D131C4C
:100C7000D737DE691F1084BAE6BB42212210E62A6C
:100C8000109100A842100210840084210021084025
:100C90000842100244A84008421002108400842137
:100CA0000021084022542100210840770B4291A1E5
:100CB0000D0A4685E39B0004F684A027B4201004A7
:100CC000F6B539A13C04244013C04A02780848D044
:100CD00013DAD4AD1F1F92C7B566B2B5E9B85DEDA2
:100CE0001209EACFBB4F11CBBE7E4A8E5826317215
:100CF000E11923589B3D4414B1992A668E28C732C6
:100D0000F761685B9F68B7CBAC843271474E491C72
:100D100010F97A9F3589DDE7ACAC9B3256BE407F37
:100D20001BD71772F63BAD33F7374EA9ED46D76B9D
:100D30006BA1B6015D5039B86D1B4FEEB555EB5B3D
:100D40005DAFD238D5D53FBACF8618FC2C03E0373B
:100D50003F358CC96E9CC65C1E1FE642A4F9DB447D
:100D6000D209F12E6E4E6778D7181EC54D647144B6
:100D70005CF3C2EF22B0CBE5E9D292C88E079AB4F9
:100D8000E86E77994B28A9679BA00C612B30D23D68
:100D9000896A2BECF1C9708BF96511DCBE71E33FF8
:100DA000060DCFCD140B39FC9A924E398971C9F8D2
:100DB000AA33C9231D86B80F82E96D77D8DDBAC181
:100DC0006486AEDF2CB3968E1A8749F8BA3FD07A84
:100DD0002D117DB58A5A974523781DD33C884794B9
:100DE00023253E8C762AB9DAEDDC564DA5E791D263
:100DF000CA1DB783395E33688BDD8647C67A616565
:100E0000B67B70A1A4264FEAC9BFC174873D149B6D
:100E1000C2E4F0B52503C1F6D846F9C4802B3A32B6
:100E2000F0DB65EE96491C1AC73B072B2396984BBF
:100E30001160682C23C595806A0B6C947706889D99
:100E4000C64EE1BFE16CAE78339D59708E0B6E9F3C
:100E5000B85FA0190695EE0339E176320850765B4B
:100E6000AB5B71B55AA0AC7664A9638027F134AC52
:100E70004F4EEAEA7BBF6726D33BA363AA6D92C6B7
:100E8000CCFBC66683B2C3FB35B91820B039CEE1BE
:100E90008E3F687717F700BBE77763075F50CBC4D7
:100EA000C0C79CE392B4E6AC6F4CD71ACB7D2BE461
:100EB000DE531B4B8FAE07ECB268CF13011CF92C2D
:100EC000B2586736884B531C1592131C154A95B8B7
:100ED000535C14E5A985AAC460AE5A98E6AB2426F3
:100EE00039A8460A85AA37B15B73546E080A2F8D5C
:100EF000577C6AFBDAA07B10145F1A81F1FF00F0C7
:100F0000ABB398E189D2CAE11B1A325C4E303CD6B1
:100F1000A4D69DA2B9EE7D1E9FCB1832D7D51EA7B1
:100F2000FB3FCAB420E6F08D7A5D15BAA96208CC01
:100F3000AFBA82DD6567FBED401263689BE279FF23
:100F4000000B536BFD494DAAE18A98DBDAC8A193E7
:100F5000BC8E47BB2FF86072056393CB24F33A59DC
:100F60009EF7C8EDDCE71CE5316FAF4EA1CB3EA785
:100F70004BE0E8A966CFA9FF002208E9608C00C811
:100F80009BB297007401390B41EAC29AE0B118A5EF
:100F9000FB86A1EC638789AD29C842EEB8CBB45279
:100FA0009EDF4B30F14583E6DD979B5565737C50A2
:100FB0003F887E13CC2F7F96EB3BECB342CDAAEE5D
:100FC0007DFD535CCB4D391DE3BAC87F00F45CE76F
:100FD000255ACB3C9F21E3F44EB73B2297DD70624C
:100FE0007D99F65378D693F7B2E682D4C3892A1E48
:100FF000DC971F260EBF1E8B79FF00D0168C16E3E0
:101000004E595CEA8E1C7B49A877171639E397C9BD
:101010006D6A1A4868A9A3A7A58DB1431B435AC698
:10102000F20029F91DC8C2F32CD4CE4F29E0F8AF45
:101030004A0B3B7AFB9C17AF34BD568FD4F5569ABA
:10104000C3C6E8CF147281B48C3C9DFB158F2E82F1
:10105000FE2DE858CAFD3F5FB09248E5849F30D22C
:10106000D3FBAE7C5E953372AF2CCB38E1F02A1007
:1010700085D0A02109100A848950021090024E00E8
:10108000C9F2402A158148E10325924863639FDD38
:10109000E5CEF137D4B7CBD546D8B8F8046E697130
:1010A000711C3BE47A9523288D2253B6C479FD52F6
:1010B0002802A44A84008424402A10840084210049
:1010C00021084077434291A13583652342F1CD83C6
:1010D0009AA4684D681919E4B50DEEFBDA3E9BBF82
:1010E0004DC76F375B63DE5D19821E2F0F96DBE500
:1010F00043782F086F78371809E02D0774EDBEE9A3
:1011000043706C13D97D98340E38E7696BD675A29D
:101110007B53B66A591B03A2305411B827654DE8BA
:10112000B3A648D8AD089258E089D2CD2323880CC5
:10113000B9EE38C2C0753F69B6EB43E4829A196ACA
:101140002A86C38870B41FDD6A1D53ACAE97E9DCF4
:101150002AE777759CB6266CC6FCBF75576245E1D9
:101160004C9F7C1B0FB43ED39AD63E874F4BB6EDB7
:1011700092A87E8CFF002B4DCD727D4CCE7C9217B9
:101180003DC49712724A63DAE97049287C1134022F
:10119000480E5C1B72ECD518A8744BEDE384343B0D
:1011A00018E6AB5D24648C6067BC4EE57A3A7747FD
:1011B000DEB5454865A289E60CF8A77ED18FFBC74E
:1011C0006FA2DE7A33B1FB55A991CF7B2DB8553490
:1011D00003C2EDA269F8755650F82B29A5D9ACB415
:1011E0004692BC6A9A622800A7A36BB0FA99797AF2
:1011F000E3F12DAF61EC7B4E501649708E4B8D485C
:10120000C173A73E1CFA346D85B169A9E2A7859028
:10121000D3C4C8A260C35AC6E000A6C61745148C42
:10122000F2B5CB8455B7DBA8EDF0B62A1A68608911
:10123000A301B1B0056F8509558E6D952E7450DCF4
:101240002827A4A9607452B4B5C3AEE3195CC7AE35
:1012500034A4968BDCD455ACE26678A19B8721CD73
:101260003D4FAF45D4FF00058AF683A5DBA92D0EBF
:101270008E20C159178A1738F3FED50D64BD73DA75
:10128000CE56A888518746226890100607309823CA
:1012900024194343F888E7D0AC82BE99B24B253578
:1012A000630C757038B0E76271E67AAF2E22696719
:1012B000314A36277FD9562CEED64A750E7BB10CB3
:1012C0007E37F3763900B0BD637081B5CC21DC7216
:1012D00046C0311EE415EC6A8BDFB3C13D250340E7
:1012E000901E0965073B792D72E638B83CB9CE717E
:1012F000F111E7BAD108679393363BB864B20B9CFF
:10130000388C3432A9A1A7EF63BB93EA4B49F8A903
:10131000B47D0D45C343D43E8C66AE8EAF8837CDC9
:10132000AF6907F45E5E92904DA4350DBDFE275364
:10133000539A881DE6D2467F2C2F53B27AD905FAEC
:10134000D56B8496B27AB0E931D5A1A42D4883A09B
:101350003B14BF1BAD9E16BCE26A7608E569E84106
:101360005B7A9B671CF2385CFF00D8A7754549AAD9
:101370008B1F96C3700DE2F2038B1F9ADD93D77714
:101380007678AAC0F0973093F1385C2DE7939B3DB7
:10139000C3CD35C13F6C6472E7F548B8104242696D
:1013A0000A6704DE1524103828C8561C1464292046
:1013B00081C146E0AC3828DC1588C158B556A87301
:1013C00021864927735B1B41739CEE400E64ABAFD3
:1013D0001BEF9C7A2D2FDB3EAD7195D60A0780C698
:1013E000E1D54E69EBD19FE55EB839BC235E8B49F0
:1013F0002D5DAAB5D18F768DADA5BED5C9456F7BC4
:10140000E2B646EC63ACA47327D160DF0E69A94E47
:10141000E39657A9082AD611F79A7D3C34D050811B
:1014200094697D07A83524227B65170D2938134E52
:10143000EE069F3C79AC866EC6754B59967B13CFF2
:10144000E1EF8FF85BC3B389A1A8D13687D3E0471A
:10145000DC34607981BAC9FD0AF3A7AAB149A47C3A
:10146000D6A3CDEA2364A314924CE44BC686D4B62B
:1014700076B9D5969A8EE8737C587B7E3E1FDD63E5
:101480006E0E6B88734B0838208C15DBE5808DC69B
:101490007E2B18D49A1EC37F63BDBA863131FF00FC
:1014A000AE8FC2E1F35786B7FDC8ED479EE7FD68F2
:1014B000FF000391D27D07C56D3D67D905C6D5C72D
:1014C000536279AFA5193DD16E246FC0754DD23DE1
:1014D000990D41A12A2E0C7C91DD78DE2261E5E098
:1014E00038E123E395ABD7AF6EEC9EBFF9969F62D0
:1014F0009EEE1FF1306D2B60AAD4B7DA7B6D1B5CBA
:10150000D748ECBDFF00F2DBD49F92EB5D3B67A4B4
:10151000B15AA9E828230C8A2681B0E7EAB0DEC6D2
:10152000B479D3965754D6C5C372AB39938B9B1AF3
:101530003937E1D56C619F35835376F96D5D1F377F
:10154000E5B5EF5366C8BFA57F314724142648E0B0
:10155000D697388000C925653C939BFF008B5A873E
:10156000495960A668CB628E595D8E6388B47ECB84
:101570009ED6E1ED56F4DD47AC6BE669E3A661F675
:1015800078C742D6FF009E7F25AA2E54A692A4B704
:101590001E176EC3E8BD9A22E105934F90F193A206
:1015A000A8DCBA7DFD99550842EA78A08421002183
:1015B00008401F3C7AA9478231210D2E79CB0B5D63
:1015C00092CC2897A36C631F79B7C72776633247FD
:1015D0009E0191F3564B2F052C7B53665160D0E64C
:1015E000AE16545D5F2B5F28E21130F8B1D388FA54
:1015F000F92BD76ECFE06C4E14524D04E064366D7B
:10160000C396D5B2411C74BED90CAD3565E5AD6845
:10161000E6DC726E7FBB9E54F339B72A4927BCF1D2
:1016200041260B8E467807DD3E993B70FA2D388AAD
:101630007B31F9FEC7CF3D4EA24FD4DDF85EC734F3
:10164000BA92A0D53A8A48A4F6B8F31B23EA08E771
:101650009F4548821D820820E37E87AACAFB426319
:1016600046A86774D717BE3639ED6EC78B90FAACB3
:10167000565F0C8F1C25BE6D2725679476C9A3DEA7
:10168000D3DAEC8464FDC43CB9E12905B8E269040D
:10169000F2F55EA698ABA0A2BED34D77A615344D49
:1016A00077DA30FF00EAC75C2CABB658E037FA0AAD
:1016B0009A4E034D5148D31BA3F770091803A15E3E
:1016C0007CF56E3A88E9F6F0D673EDF834A5C64C91
:1016D0000122B143493D74C22A6617C98E238E4D3B
:1016E00003A93D07AAF5E92CF03F3C2EA8AE7B7D6F
:1016F000FF00666F0C4C3E464775F86CB6FD8A4994
:10170000C62B2CF050B24169A7770B450B89EA191B
:101710005F1B9DF45E25C695D4B54F8DD0CF0B7A57
:10172000099B877F823D429C3F74554E0FA68AC815
:1017300042141D0122542153BB5AA4684C6AA1A92A
:101740006AEE34562A9A8B2518ADAF68023849F7ED
:10175000BD70BC736A3D70401924003993C961DAC9
:10176000CFB47B1E99A3796D5C5555B82194F1389F
:101770003B7F53E5E8B02AED19AE754C0EAAD67A38
:101780008A2B45034F1181AEF0B07A8181F52B0F82
:10179000D4745D9F5AED5516FB4FF30BEDF656F0E2
:1017A000C7521E406BB96401B119E98F9AE7293F0E
:1017B00063BC2A59E5E7F060BAD352D66ABBD4D7E6
:1017C0002AF938A576CD1D1AD1C82A7A7EE72D9E32
:1017D000F1055C2F2D7B1E338EA1539A0745298D71
:1017E000E1CD783B870C10A5B6D2BAAEB228A31CC7
:1017F00045CE1FAAE26BC63A36EEB18D97BA18AE47
:10180000F4ED6B4901D81B64E3AAC50C9C3134BCD0
:10181000319D09F35906A2926B7C34F6EE0961649E
:101820004D0E7870C1248FD1623553365908681D2A
:10183000E79E700FFEEB1CF53B5ED48BEDF736B6E2
:101840009AECA2EB748E396B6A22A3A43BE41EF1DE
:10185000EE1CF60365B3B4EF65FA72D0592494A672
:10186000BEA1B8FB4A93C633E8DE41738697D677AC
:101870009D3352E9AD556F8C3F1DE4328E363F1ECD
:1018800060FEA16F0D0DDB45A6F2E6525EDA2DB5C6
:1018900099E1E2CF144E24E319E9E7BAD14DD09F84
:1018A000D8CD6A9FEE36CC51B226359131AC8DA39E
:1018B0000D6B40C0F90E49EA3A69E2A985B2D34AF4
:1018C000C96170C87B5C082A601693300E495A843F
:1018D000A8012B5095008796CBCAD515DFCB34F5E0
:1018E000C2B1BB3A285CE6FC7A2F5719D9607DB2A9
:1018F000D59A7D1D24436F689030FC399559745AF0
:101900000B32C1CDF555E657BDD52FF148F2E0E3D6
:10191000E64AC7353EA27B29FD969439D3727C876F
:10192000A0F45EE56C46621BEBF928B5769E106864
:10193000BA5B8C74924AEF68EEDD2B76E06E360B64
:101940009D334DE19BEDAF0B28D6D03B8A9EA5D5AC
:1019500004F3C92556741DE31CE88F13482384A49F
:10196000ABE3C973A3EE6366CD613B97742552A8C0
:1019700070A67B40739D3119273B02B72664664DE4
:10198000A558EA4B6D7D54B206C4F85D4833F78B19
:101990008EFF009059DF657490E9E8E6D537621A4A
:1019A000D8E37FB334F37920E0FC16271D2D3334C0
:1019B000AD96194B84CE98B9D19FBEDEBF4C617BEA
:1019C000D7FB88BA5651DB5A7103384160F2E8BB45
:1019D000C7A2A667D94CF2BB436AB983712CB23255
:1019E000471F893FB2DE56A26EFD9ECB0B0E5E6096
:1019F0002D1E796EE161BD98E9CA6A6B15C29DCC56
:101A000003DBE3E26C7E600D8FD57B7D9755CD0CBB
:101A1000F71B456348EEB2587F135526BE968A9B46
:101A20002AD4F32DB291EFCF13A26E73F056085162
:101A3000D080299AC6EC18787F753B964F72A468BF
:101A40004A42442063828DC14FCD31C1490577059B
:101A50001B879A9DC146479A920C6F5B5F1BA774C8
:101A6000E5557B9D898378221F8A43C8FE8B962784
:101A700095F513C934CE2F964717B8F9E4ADAFDB0F
:101A8000F5E0CB73A3B431D8642DEF641FDC797E0D
:101A90004B532F4B4D0DB1DC7D9F83D2FA347A8F9F
:101AA000B7FD011F1424F8EC1693DA37B7F0F5A848
:101AB000DB252D4586A1F89633DF420F569F787CB3
:101AC0008ADD4DC6EB8B6C973A9B3DDE9AE344FE74
:101AD0000A985FC63CBD41F421756E86D5747AAE16
:101AE000D11D5533B8666802688FBCC77AFC579918
:101AF000ABA9C65BD1F23E6744EBB3D58FE9664E26
:101B000084897C9633C402DDBA28D90B230444D6D9
:101B1000B4139200E654A840200529E4841E480628
:101B200011BAD75DB3EA0AEB2E9C7C3414D339D5B5
:101B300020B1F3B5B96C4D230727CD6C53C9473C91
:101B400011CF0BA3998D92370C10E19CAB425B5ED9
:101B500059D28B157629C96523893392482493E29B
:101B6000DFA9CAA376A61534843777B7C4D3FB2D73
:101B7000E3DAD76651D053CD78D3F1F0C03C551499
:101B8000BCC33FB9BE4169B3B676F885EC5762B5C0
:101B9000707DB46CABC8E99A8F4F8C7DCC289DC802
:101BA000E5BEE856AE90F715B2300F09396FEEAAD0
:101BB000AE87E736D6E9B1D6FD9821084390244A8E
:101BC0008402671BAB2E90C90C4182364B09E16F32
:101BD0000370E7F5C93D55729CC7BDAF0E638B5EC0
:101BE0003A8441C771B434B6BAA76C6C6D749DC5A4
:101BF000435A18FE31964A0798EABDDBDEB782E108
:101C00001CAF6D443572C4CEF3B9A76FBF81827D1E
:101C1000481F46E569463E321BC71E30D3BB4EE423
:101C2000FAA9E82AD9455115444C79958CD8B9D8E8
:101C3000C3FCF23623D17757BEFDD7B9E5CBC656E4
:101C4000E4F96A2FB5EC3EB6B24B9574F5F55C2F0E
:101C50002F232DCE398C0C7C15018E9CB7D97AB7E9
:101C6000B89B3361B8D33436967F016003ECA41B74
:101C700098CFEA3D17959C6EB8B96EE59E9C20A161
:101C800088C7A40AE472D5D7B2928185D206BB86F2
:101C900006BB7E12EE9F05E9E90B11BDD716CA48B7
:101CA000A5877790705DE8B69D15BE928A16C749E4
:101CB0004D144D68C785BB9F89F35D6BD2FABF5742
:101CC000B1E7EB3CA434D2D89659AE0321A6A4F6D2
:101CD0007858F96944823E06F3AE9873E2FEC6F482
:101CE00059051E9692B228E4BDD438B40F0D2C27A6
:101CF00011C63A00B2B82D94F555F4CF6D331D508E
:101D0000CF0C6E6B72403CCAD8368ECF2AEA5B216C
:101D1000AC229DA1C031CEC1CB799DBFCAEB255667
:101D20009D66D679F2D56A35CF1447F7FC1A94E848
:101D3000CB2CB0BF8689E1ACE6F638E5ABC7BCE991
:101D4000CAAB5533CC624ADB78197D2CC32E60FCBC
:101D50004C5D3F496EB0D9E5777118ABAB7601FBAE
:101D6000DB8F4F75BFAA7DFA823BFDBA68DD454E19
:101D7000CB8C2D3DDB66DC377DF71E8B24B5F5B7AC
:101D80008D9C7CF46BAB437C23995997F1DFFD1C50
:101D9000393775DF3FD9CBBBACF838B9E3C9316708
:101DA0005AF344D55B26AAB85088EA2803C893B9E9
:101DB000CFD8BBAEDE5EAB04478CE11EA572DD045E
:101DC000C54210858EEF6FAA8EE33544141533514A
:101DD0004027A963098E13F7DC06C3E654AD52B55C
:101DE00078E6D39F755D15E6E108ADED3F510B45F3
:101DF000B9F9305B69871492007EEB46DF32BCCBC9
:101E0000059EED789BD9BB3EB44D6BB6BBC325CACE
:101E1000A80EFA51D497F268FED6F35D0775D3F693
:101E2000ABC5452D45D6820A9969B3DD193EE2F569
:101E3000640FA7A2905142C3246C3DD463C2D271F7
:101E4000B054DB93BAB563A39CB5DE81B2D8A0B61B
:101E5000D8E81F5372D5D709438CAE7ECD07DE2458
:101E60007AF2CAD9FD9BF6536DD2CC655D78656573
:101E7000D3671770F8223E4D1E7EAA5D05A2EBA91E
:101E8000AF957A9B56491D45FAA1CE6C6C67899433
:101E9000CCF269F3C2D8CD5550C3C89D8D2C64D700
:101EA0001DB4D8E2A9D3E6E10C0D754C0785EF60AF
:101EB000DCB3A2E6EA885AC739ED27C4791F35D9C1
:101EC0001A8AAADB4968A837B963651BD85B235E09
:101ED0007DE0472017205DE7A5FE6552695CFF00A5
:101EE000662F259DE0C380CED95E6EB6BC4D491AE3
:101EF00074D3CC5A6794E983DC5B274E4F50BE26DF
:101F0000778D276E171C169E12536A6489D82D246C
:101F100067A9E4AB9941180E0EC7459E09AE51DA88
:101F20004D196690D757FD20E63ADB5C1D4E5D9754
:101F3000D23C7144E1E441E47D42EA1ECD3B40B72E
:101F40006B8B6F794E3B8AF8801514CE764B4F9889
:101F5000F30B8BA47716C0E41E8B7C7F0CDA46A4AF
:101F6000D7CBA92A0C91D331A628403812B8F33F19
:101F700025BE89C9BC196E82C64E8F4A84AB59945E
:101F800010842121F15A9BB77ACFF75A0A21CDC587
:101F9000D2BBE430B6B4D2B218DD24AE0D63464BEA
:101FA0008F203CD681ED4AEF1DE3523C524A24A7D4
:101FB000818236169C827AE172B5E11A34F1CCD175
:101FC00080D1D19A89D91B1BC4E256CDED16E14BC5
:101FD000A3FB30A6B3D451B27ABB83701B2332D695
:101FE000EFB9FF0056392B3D91E986D54E6E55313C
:101FF0008EE233F679FBC7CD4DFC4B4D40CD171328
:10200000679626578978A06100B8F43F0D94511C5B
:1020100072CE9A8B32F69C7BA8E72CAB760C63D100
:10202000A3905E3D3C4F9AAC3C8E26824AB95B1B26
:1020300065AA7191AE71CEE414E8A714F4D2B4028B
:102040001E1858CF524EE7E4B76327065AA9B8398D
:10205000CFA76E4BDB03406B473C9E9F9AD99D9761
:10206000D85D50E76A1BD10DA487C63FBCF4016B55
:10207000FB158DCD8BDBAE10B9E1BBC74CD3873FD1
:10208000D4FA2DA34B0B759E9286968AA8515D6952
:102090005B934A72D8E403963CD77895367E87BE28
:1020A000B6E5AD677C6E796451F72CC0F080467E52
:1020B000AB2CD3AE60D6B75819B7035B283FEA19EB
:1020C0002B5CF65D6EAEA6B1D5CB594A60B8523FD7
:1020D000BB193B3DBEAB2FD1D53349ABEAE69237B6
:1020E00007CC1AD738F2E1C6C925920DB16C24D2BB
:1020F000B4F992AD28E959C103079291CB0BECA337
:1021000011331BA7A691B282469E69AE4E4292AC95
:1021100085E3751B94EFE8ABD49E182578E6D6933B
:10212000F92B2EC98ACB48E50D7F70373D6576A81F
:10213000CE5BDFBA360FED6EDFB2F0149532196A5E
:102140006794F392473FEA4A857B31588A47E8F41F
:10215000C365518AF81C842158E80BD0B0DF2E36B5
:102160000AE655DAA77C12B798E61DE842F3D21DBD
:10217000C109B53FD456708CD6D9F474AF655AF600
:10218000E5ABA4961AAB6C513206FDA5446FF097EF
:102190007A05B37A0580F6316965AF43513C34095D
:1021A0006AFF00DE1E7FD5CBF2C2CF41DD78B76D6E
:1021B000DED44F82D6FA7EB4956B090E4994A9AE4F
:1021C000386927905C8CA19465600CD4F5176A1D62
:1021D000511D04819576C99C22C7F680707E241516
:1021E000E8F67FAC687565AD9342E11D647B4F4EA8
:1021F00076731DFE15FD378C9DE5A7B23172C7467B
:102200005FCD046C80529E4A8702B55C4C9E9E58FE
:10221000A501CC730B5C0F5079AE34BFD2B28AF9F2
:1022200070A58F1C114EE6B71D3057576BBD454F3B
:10223000A6B4FD4D754BC7106F0C6C3F7DDD07D507
:10224000723544CFA9A992694F149238BDC7CC9278
:10225000BD0D127CB3E97FC3F5CD294DF4781A8A00
:102260003C3E1931D085E2AC86FE3344D3E4E58FA1
:102270002DC783E76BD9AD97DF02212A10F1C10882
:10228000472402215EA4B5D5D542656C5C10FF00E1
:10229000CD95E236FD5DFB297F93C871C3596D73FF
:1022A000BC9B56CCA64B60F35283839DBE6BD192F0
:1022B000C7716B4B9B4C656FE289CD907E45509604
:1022C00029227704CC7B5DF85CD2132860B968AB17
:1022D0008E07494F59FF000152D0C981192CC7BA46
:1022E000F03F134FE5C4BDAB368ABA5CAE0EA78D86
:1022F00084303B0D90788BFCB03AEDF454B4759576
:10230000D7EBCC54ED69744DF14807DECEC07D5754
:1023100066E85D294BA7EDD166269AA2D1C4EC7B75
:10232000831EE8F82A5964688EF97FD99DCACB6567
:10233000E957C3F77F0BFE4D4FA47B27BADB688CB0
:102340007100C123B88BA77004FC86EAFDC7445E08
:10235000E8985E606CEC1FF25F93F42B676BCBD553
:10236000458EC82A68BBAEF8C8D678F960AF059A22
:102370008D97FBD58E3B7B1EF9E33DE54C8C040627
:102380000C7887D5453ADD4EDDE92DA79FA9D069A8
:102390001CDC2526E6F060DA42A9F6EBFC533C4251
:1023A000CE0058F3302037CFE6B6F5EE235714723F
:1023B000C1297C4F01A019311F3F78E39F96EBC6DE
:1023C000ED034AC15F4AFB85346055C2389E1BB796
:1023D00078D1B905276757892BEDEEA2AA6C303961
:1023E0008098835D87707111EEF4C725CF5362D456
:1023F000C56A61EDDA3B68EA7A49BD24DF0FA67B46
:102400001252D2D2338A08E37C129E2691F74E3FB5
:102410004C6556354FEF229628F1331E5A1A0F118C
:1024200091BD47A03CC6E7753B6CB3FB587890085C
:10243000D8EC832789E721CD713D37C82ADCAFA1CD
:10244000B630D448EE37E4349182E1EB8F25877AB9
:10245000F9C9E9EC7D25831FD4B6A8DF07B644DAB5
:1024600068E966197B1CDE124BB9E7CD729769BA31
:1024700065BA72FB9A4696DBEAC192218F70E776C5
:10248000FEEBAB3505F1D5B098616814AF208246FC
:102490001C085A83B69A26D4E9033E3C74D335CD42
:1024A00077A13BAEBA79B522F34B1C1A0D0912AFD6
:1024B00044E2778B548D51B548392F1CD848C52339
:1024C000546C523509246291AA36F2523390424D2F
:1024D0002DDA7E9ABEDE3559631B51554D301ECD27
:1024E0001C4C218D1D5A5C7DDC73584F6ABD9D4785
:1024F000A4F44535CE5A96B6E4F99AD7C4CE47230C
:10250000A1E79FC975331605DB4E991A974454B558
:10251000B9F69A3CD4C43CCB46E16554AE64CD5484
:102520005B89A4CE269EBA70DC4DBB3A1555B5FC2E
:1025300012B4B78B092A992C9238171241E4072E4E
:10254000854069DB18CC8788F929F4E27AF6432FB5
:10255000E947B1475C27AA8A38DAEF1B837239EE64
:10256000577EE8CB3C361D336DB753B78590C4D04A
:10257000411825D8DFF32BE7A5B24F67ADA6A87B9E
:1025800059C1148D9031DC9D820E0FA2EEBEC8752C
:10259000B8D73A75D58FA714F534F27732B01F0942
:1025A000380411F22A5412E8F3B550715948CF504B
:1025B00084879157308A9551ABB951D19E1AAAA8F8
:1025C000217633C2F900385E26A8D616DB358E6A2E
:1025D000F6D4C350F1E189913C38BDFE43D153722A
:1025E0002D18B66B1ED5EED7BA6B8CB6EAEAF85D3D
:1025F0004720E26C50EC7873B71AC4F4E507F35A3D
:10260000D8E1648C6F1BB1B9DD78772B8D4DC6B6E0
:102610006AAAF71F6895E5EE27F4FA2D85D8C589D3
:10262000F5B73371943853C03009E5959DB73960DB
:10263000F4947D3AF2CDCF68A3A6B2D9218416478F
:10264000044CCB9CEE5CB72571B76DB7F65FB5D582
:10265000C67A3A974D461FDDB1DC5B60792CDFB757
:102660006ED4E4BA55D458ACD388EDD112C91EC388
:10267000FD670E63FD3FBAD0955393973B727AADD9
:102680002B8E8EBA6D1657A9697A8AD70545541DC7
:10269000ECB2980B871B7197633BEEB25D4EEB0576
:1026A0000E95ABA38A785F758E68DD4F8C39ED3956
:1026B000F1648E5B2C05F3CDDD70F78FC790296830
:1026C000299D58F2C0CE33E6DE6BAAB36A3859A50D
:1026D000E7E9321B01D4559277B433099ECC7D9B38
:1026E0004B0BF1FE83BAD8363D615749DDC171A766
:1026F000A6F6866C5D50C313C7CC0C61791A1EC94F
:10270000ED56D6BA4670D4C25F878D8B4B4670B2F9
:102710003AAD41554E228AE74ACAA6C63C32B63C7B
:1027200048D1EA3A85A2AB548C6E3878361DAF504A
:10273000DBDD609A40F829A77BF89CD6C990463922
:10274000AF4743DF29EE3792618DC48601DE743BCB
:10275000AC1EDD2DBEFF006D94DBA4A46C91E3BC28
:1027600089ECE170F5591F6799A8BA3BD8D988E27E
:1027700092381CEF371DCE3D30BB4B1839B37DC1AD
:10278000FD167AB729C95A384068E9B1FA255E7151
:1027900051A91C9C9879A1035C9129E69A79AB20F8
:1027A00034F23F1556B4668EA07FD9BBF4568F2FF6
:1027B0009A8646F1B5CD3C9C0852BB0B89238BDC35
:1027C00030E20E799E6856AEF03A92ED5B4EFF0015
:1027D0007A399ED3F22A9AF662F291FA4C649C53AB
:1027E0004390842B160487972CA540E7B73F44C637
:1027F000433AF3B3D9E3A9D176792120B3D9983FED
:1028000025928E4B9D3B23ED161B0C0DB4DE9C5B7D
:10281000419CC33F48FD0ADEF6FBD5BAE31892920D
:10282000BA9E661008E0901FC978D754E3267C262C
:10283000BF4965174B2B87C9E96772BC9D4D758AE7
:10284000CF61ADAF9DC1AC8627387A9C6C14972BB5
:10285000DDB6DB03A6AEAEA6863033F69281B2E7D4
:10286000DED6BB426EA52DB6DA9CE16D8DDC4F79CC
:10287000DBBE70E5F003F34A69763C21A2D0D9A80B
:10288000B52C7D3EE50ECB3538B7EAF9DD5F201477
:10289000F740E64AE7720E392D71F9E5BF358A51E6
:1028A0005CEAEC9797D5DAAA1D14B14AEE1734E426
:1028B00038648FA2F310BD555ACB7F2B07D9C74B75
:1028C00008CA52F95837EE95EDAA8658591EA182CA
:1028D0005A698000CD1B7898EF53E4BDABB76C3AD2
:1028E000669299CFA49A6AD9B1B3238C8FA93C97E9
:1028F0003521717A38379304BC269A52DDCAFC1907
:102900000EB6D595FAB2E7ED55AEE1898488A16996
:10291000F0B07C3F758F2121FF00E61688C5456128
:102920001EA57546B8A841611E6EA0FF0080FF007D
:10293000BC1636B2AB854533236C35B1B9F0CC77D4
:102940007467C719E8E6F9E3C978770B74948D6466
:10295000CC7326A397FA5511FB8EF4C7477F69E520
:10296000D133C9F0BFE2096ED63FB60A48424527C7
:10297000881CFCBE6BD4B6D3C50D21B957B38E9D50
:10298000A786185DCEA1FD47FA47371F837AA86D49
:10299000543EDD50F73DC594908EF2A261F71BFFC7
:1029A00000EC7904DBA577B7540731A238236864BB
:1029B000318E4D6797EEAAFE011D6D64D5D3196A5D
:1029C0005E5CEE4D6F20C1D001D07EAABA12AB0C76
:1029D0008B1B8C6E0637163BCDA7857A115EABD864
:1029E000030D4BA56FE195A1E3F35E725F8A0E8D37
:1029F000D9FC3F4715CAFD0CCFA6A785DDF64F725F
:102A0000CE10EE16E4673B733D175154C5DFD3C9B2
:102A1000107BE3E305A1EC382DF507CD721F60971D
:102A200098EDBA803267603646C9F169F0B8FCB6F5
:102A30005D597EB94D436EEF6829DD57552F8618D5
:102A4000DBC89C7327A058B5D1939431F072D24D56
:102A500056ED73F9CFEE35FF00685A625A3B71AEFE
:102A60008ABAA6A2063C66199FC5C20ED9057A5D30
:102A70008F48D7DB2AD9DDB78D92FF00500C17673E
:102A80007E7D545AA752C373D255F4D3F1515C18CA
:102A90005AC929DFEF1F10E43CBD5637D9E5E6B629
:102AA000DF768E969223534F50E1DE46D192CDFDD4
:102AB000ECAD4A36D9A39425DAE8F2DCE9A7C8429E
:102AC00070EA4B9FFAECDD6F6873483B8230B42CA0
:102AD000D502CBAA2BA4637BC9219DCD8DA5D81B84
:102AE0001EAB7AD5D4329A924A89886B18C2E39E7B
:102AF0009B2D0429A5BC5CEA2A8B4886594BCBCF79
:102B00002209E4B978CC454DCFF4E3934F99539C17
:102B1000AB8D5FAF3C1B020D5F5B72B6B668DADA55
:102B20005939E01C870E5919F25E649366573D804F
:102B3000B4B860FCF9FD557898228D8C67BAD185C0
:102B400022C73DBB9B82C23D3AD495694DE5FB80CF
:102B5000E6B07ED8EA590E88A8613874D2B1AD1FAC
:102B60003CACE07A2D1BDB46A165C2EF15AE95FCAF
:102B700050D193DE91D643FE392BD30DD344CBA352
:102B80005B352A10BD1399DE2D523544D2A56AF269
:102B90000D448C523544D528E4141248D523542CC6
:102BA000E6A66AA124CC4E2D0E05AE00B4EC41EA97
:102BB000146D528E4811C79FC40E847694D43EDDA6
:102BC00040C22D370717B70368E4FBCD3FA8F4CA0E
:102BD000D35349C2486EE42ED2FE25687DB3B3A319
:102BE000B64C552C77C398FDD7154E312B89E60E80
:102BF0001571C9EED374ACA937F81F4E4EEF70CEE5
:102C00003603CD7507F0A5AA2DB050D6582A1E223E
:102C1000B84B319E32E3FD618E9F05CC2CE16307FA
:102C2000173E785EADA6B2A682B20AC82530CD03A3
:102C3000DB2465BD083904A11657EA41A3E8C03971
:102C40000947AAF0743DF23D49A56D97760C7B5477
:102C50002D7BDBF85F8F10F91057BDD3279043C74A
:102C60006B0F0CE7EED0E3960D4358FAB0F0F91F66
:102C7000E1CF223A2C51B170B4B844D76772E1CC9D
:102C80002E83ED0ECD4F77D3951DF4799601DE316D
:102C9000C078811B95CEF7AB9D3D92074B3BBA6147
:102CA000AD1CC9F25E0EAE99C2CFA7DCF4F4B2F54A
:102CB00017E0AD24756C739F2881D164F2CE40C2B9
:102CC00065CFB49BDDB34ECD69A4AA8618656F08A5
:102CD00022201FC2763BAC42E5AE6A2B2431D25291
:102CE000C51B4F571C9F8AC5EEB5F3D4CBC44424F3
:102CF000F5C2D3A5A6E8B4E7C237474FFEF5C156E3
:102D0000AA5EF1EE2E273CBE79C954646FBA719663
:102D1000053973DFE173479EC992377E10F0303377
:102D2000B95E99A66960AE1A5EF03DDC9C059EE82E
:102D30000B4E6B7C63BAAA8BC7C246039A7A7F7329
:102D40004F9F458546227F039DC6D8FDD79C67844B
:102D5000FF0085B7B4C514D4768A5EF5CC981619F1
:102D60002925E2CE08197333D5AE6F16DE6A963C7C
:102D700022FA2827667B361D92862747336921C1B0
:102D800069123F1CF05BC3F4C10B1FBD5A1DED520D
:102D9000CAC18C61A47C0656374DACEAED7AE2D903
:102DA00025BA412C2F2229E33C9CD27073EB8C1066
:102DB000B6F6A9AEB21B4BAE8DA98850061771E7C7
:102DC000382798C79E574A9FD386793E534FE95C70
:102DD000E75AFA7FFA6B7B6092808ACA46B0CF9E30
:102DE00017F87623A823C96D1EC4E6A6AEBA5D1BEC
:102DF000047C10C0E64D1B0FDD2E182DF500FD36AE
:102E00005CF94B7F35F759DB47C51D202EFB590E6A
:102E1000EEF2C05BF3F86AA13EC77AB9924B6699AD
:102E2000B0301FC2D19FDD6B93C5793C991BACF3C9
:102E3000424F348B29404894F24C3C9009D5279A54
:102E400010A4818E5091938F35238EF8F2513C8ED1
:102E5000BC9588398FB5FB6FF2ED755AE60C475477
:102E600005430FFAB9AC316F8EDE6C5ED965A7BA37
:102E7000C31E66A3770485BD1879E7E6B42AF56812
:102E800096E860FBBF17A857E9E2FDFA2E5BEDB5A7
:102E9000D7198C76FA49EA641D226670A5163BA9FB
:102EA000AF1442DD55ED6417084C443F1D4E16D556
:102EB000ECB5FEDBD9F5C2D762AE8E8350BA62EEB6
:102EC000F0B80796ED81F45E3EB9D43AB2CE6DB05B
:102ED0005D29C525CA97898CB946EE233348C11FA1
:102EE0003F0954F5A5BF6A453F6CB256CAB8457E46
:102EF000F7CFE7F0618FD29A818C739D66AE6B5AE3
:102F000032498880156A8B1DD2968855D4DBAAA1D8
:102F1000A570044B2B0B5BBEC37F8ADBBDA7EA5BAE
:102F2000C50E8BD3335257BE39AAE2777EE007DA5B
:102F3000784735EEEA422E5D999B591C537F2A65EE
:102F40005B3CC1660AA2BE6926D7B9C5793B928CA3
:102F5000A71586FEFD234236CB7475B8DC1B6FA91E
:102F6000F620DE3EFCB08670FC514567BA54D33A79
:102F7000A68A86AE4A71CE589871F55BE6EC1B497D
:102F8000D945C2D118C3A92DB1F1F9F13864AD57B3
:102F9000609AEFA8AEB6C6DBE48E920B7362608DCA
:102FA00093700C039240EA4F3C2E91B5CD36FA4710
:102FB0006A75B3BE127B5613EFEDFDCC4A8E8AAE16
:102FC000E13882969E7A89467C0C6973879E4744D5
:102FD00095D4755433BA0AD8258261CD923707D17A
:102FE00064978BEF7153A8692829DF0495F59C5DE0
:102FF000E37C2E0C048E0C74C9FAA5D67DEC565DCC
:103000003D4D70717DCE286474DC6789ED639D96BB
:1030100035C46FB0E85748C9E52F93546D9392E1DA
:1030200024CF0EDD65B9DCE37C96DA0A8AA8D87075
:10303000E744CC807FCAB274B5F9B2363366AEEFDE
:103040001C32D6184F2EAB68762B156CBA1352C7AC
:103050006B90475E65222909C61FC23AAC6B56DCED
:10306000F5B699A8A596E9782E91ED770189C1DB8F
:103070006775CBD593938AC19BF6CB2574AA863806
:10308000E39CF262357A6EF9474F24F5769AD8615F
:1030900067BF24911002F216E4D6D7BBADA7B36A7E
:1030A0001B7DE2B5F5375BA8E394C98F047CF03F44
:1030B00025A7174A6529A793468AF9DD0729A5DEC2
:1030C00038C8A90F2D9226CB20898E7BF90195D483
:1030D000D529A8ADCCF0750C9C754D8FA342AB41A2
:1030E00070A8A173FB97031BF69229071B241FDC12
:1030F0000EC7E239286A25334F248EE6E76FFB2896
:10310000D41F98EB350EFBE567B64F50C96AA9DEB0
:1031100048EA28A43B911FDA464FA03823E44A4EE0
:10312000E6D11EEFABAA9DBF8590861FA92BCB428F
:10313000AE0CD92FD7DC5D530329A089B4D46C71B0
:103140007881873971FBCF3D4FC7E4A8212AB004AD
:1031500021085410911F92162E5A6BE5B65C21AAD5
:10316000A7F7E371F0E71C4DEA17547659DA5D2DA5
:103170006DA6082E327D9B7C0D99DF771D1DFE57B5
:103180002950D2C95B571D3C39E390E01E8D1D4A82
:10319000F42BAE92415B136D733A1829077713989D
:1031A000701DE6EF5E22A26A36AD93594709D72D0E
:1031B000DEAD4F125FCFECCECCD59A6E8B53D29A48
:1031C000BA19A2356D61E0918461FB6C1CBD5B7C1A
:1031D00056DD3969631E60A563580BF8881C4EC61E
:1031E000E49EAB8D28B5F5EA95A071B1F818E2C15F
:1031F00069FA8C28EE1AEAF55831DF322FEE6E4B61
:1032000087CC95C9E9F31D8E6F6FC63FB9C93B15D1
:103210008EC55ADDF39FED937AF6B5DA852454FE18
:10322000C54C5CE80B87135A785F28FD87EAA2D269
:10323000DAA6CD7AA58DB4154C64AD68069E4F0B09
:10324000C79EDD5734CF2C93CAE9677BE495C72529
:10325000EE39CA68241041208DF20E14CE98B86C55
:103260008F08ED541C25EA4DE65EFF008F8475D76C
:103270000B8E0F0EDE6A1ABA9A7A284CB593C704E1
:103280004372F91D8C7D572E437CBAC11F04374A07
:10329000E8D9D00A8781FAAA955595556EE2AAA970
:1032A0009A7779C92171FCD70FD95FC9A379B6F58F
:1032B000D769D1B6192874DBB32BB21D56366B7F94
:1032C000D03CFD569F27277277E649C9E79FCCA6D9
:1032D000A168AE0A1D156F22A12255D01DE0D5238D
:1032E000540D52B57906A266A91A542D2A46A15248
:1032F00066A91AA16A91A541744CD5282A26295A93
:10330000A8498F768B69FE75A32EB45C397BA12EFC
:1033100067C5BB85F3FAE3098EE32C4F182C796956
:103320001F02BE91B802D208C823979AE16EDCACA6
:103330004CD3DDA7DCE9616F0C123DB2C60F201C37
:1033400033FAAAFB9E868ECE1C0C0C96B5E31BBBF3
:1033500018015985CEC78B04F9150B806CA49E6AA1
:10336000463B193E4A0F53A675EFF0BF7B8ABB441C
:10337000C96C32833D15438861E62376E3E59CAD55
:10338000D4B873B11D5BFEC9EB7A39AA262CA09C78
:10339000F71507A60F5F915DBF148D9636BE321CE0
:1033A000C7005A7A118C843C6D557B279F91B53CA0
:1033B0001ECF2778406709E227963AAE1BED2A7E9A
:1033C000FEFD5E62777B4A24222F2E1CECBACBB422
:1033D000A378A9A18282D14B2C90D413ED12C7D12E
:1033E000BF87E6B967B4EA58EDB7B929DF2B5F2389
:1033F0001B8746CE6D3CB7F55C1BDD625837F89CE9
:1034000029B4FDCC2A39A28A97C74B002ED9AEC663
:103410000E3AAF2A6C3DE4B70C19E8A597992D71C7
:10342000E7C895039F9DBAAED83D897DC38C804681
:1034300071EA99146E9E711873439FB0CF52A373B3
:1034400078CE3F45EDD8AD2EAA9C304664A8038BBC
:10345000B871C77ADF363BCC219F9B25B516AD1AD4
:103460007A4A88E68CBCC3507C25927E21BFD0ADC1
:1034700080DAC7D269DB6DB620C9273531C100CEED
:10348000E463C47E014F4B6792A34F4D0BC9925822
:103490001A24A59DCDC4831B963FCFD0A8F48C14CD
:1034A000F4F71A67D7C61D2CCDE3A695DFF54ECFEE
:1034B0008C7CCAE339E783D5AA9F49623D9E0B2DD8
:1034C00011D1CF2BEB33C4F2EEEF80E401E9EB95A1
:1034D0001D1C53DCAD153495EF95D6F397831BB0C7
:1034E000E611CB1E6BDFBA539AFD5B4F4908732977
:1034F0004F13DE4742DD8E3E6BDC92C86395B414F9
:10350000E0369E38433C5CDEF3CC9FA2853E32CB56
:10351000DDA75358F6FEA601436A14F5D4F6DB671F
:1035200014F254163613B65C1DCB38EB92BB27B39E
:10353000FD370E95D2F456C8325EC6874AF3F79E21
:103540007727F65A93B0DECBAAADF7776A1D418292
:10355000F88914711393E5C656FEC616C94B724816
:10356000F86BDA53692C72393509150E0098E4AE00
:1035700029B95240724D71C6FE68728DE7752408F4
:10358000F2A171D8E39A7B8A89E7757056B853C364
:103590005D493D2D4B03E199A58F61EA08C15CAD02
:1035A000ABAC3369CBF545BEA326361CC721FF0063
:1035B000AC613907F65D58F7639633EAB0BED23492
:1035C0009C7A9ED598035B71A704C2F70F787E138F
:1035D000F15DE8B363C1EA789D77ECB6ED97E966F3
:1035E000ADD194BA76EBA56A292A2AE0B5EA164845
:1035F0004C559238B76CFF00FD5E876A77EA29F474
:10360000C592C905C1974ADA53C7354B738D8600F9
:10361000CF5E6B5A55412D3544B05446E8E58DC513
:10362000AE63BDE1F15172D96B74A6F764FA95A24D
:103630008BB55BBB2B39366F69F72A2ADD17A529B5
:10364000E92AA29A6823224631D92D3C0398594D84
:1036500026A5B653DFB49892B607523ADCEA7A9EB2
:1036600027E434168C070E9C9689C2309E826B0527
:1036700065E361282ADBEB3FCCDD171D45415B6C20
:10368000D7AD359003316C34CD2E1E30D681B7D1F5
:103690006051D968AB996FABB55C69E919DDB3DAF4
:1036A0005B513F0C90CA3DE383BFC162981E48C284
:1036B00098D3B3A674AB42A9FD12365D3D451DC635
:1036C000F17DBDDBE5A335C1ED868C54BC31A3C3D0
:1036D000BCD83CCF51F1585DFE86AE9A71515F5710
:1036E0004D5124EE24BA39849BFAE392F2308C0FC8
:1036F0002578C36BCE4BD7A7F4E594CD9FD9FDD6E3
:10370000928FB35D554D355C70D54F9EE98E7E1C12
:10371000EF08E4B03D3EC8EB2F96D8ABE6C53BA61C
:103720006192495FB06E77FC979984AAB1AB6B6FD9
:10373000E498E99294E5EF2FF833AED8EF105DF5F9
:1037400071F63999352D3C4D8E3730E472CFEEB09D
:1037500064DE49CAF08ED583A5152A60AB40BC5BF8
:10376000FD5E1ADA767BCEDDE55FB856328E024911
:10377000CC87DD6AC5A490C92B9EE392E39CFECA68
:10378000C7CF79EF24AB87ECF5FEA7DFD90D421048
:10379000A0F8D112A442151522542004212201526E
:1037A0002557AD14ADA9A973EA72CA681BDECEE332
:1037B000F846DC23E250B1619FFD32D25FFF00DEAC
:1037C00057B703FECE0EBF371FFCA0F9AF2558B880
:1037D00055BEBAB24A89001C4ED983EE379068F8BC
:1037E00072F92ACA10609508525445EEE91AEA0A9D
:1037F0002AF905D2063E29581A1EE19EECFECBC3DB
:103800004298CB6BC95B20AC8B8B26AC6362AB95CB
:103810008C20B03C86E39639850A44AA1BCBC96844
:10382000ADA920489508012254203BB5AA46A89886
:103830007652357906C256A91AA26A91A809814F13
:103840006A89A548D50112B0ECA66155DAA5615484
:103850002C4EDE4B98FF008B9B1965DAC77C633CCE
:1038600032B4D348E1F886E3F22574D37D792C1B7A
:10387000B6CD35FED4F67573A38D81F5508F698072
:10388000793D8338F982E5068D3CF65899C3750C6D
:10389000F1BBF11FD1444ED85E95444E2F19690EED
:1038A0002D3907A1EBFA2F2E4D89CF438543E8260A
:1038B000B8C93C6F0D3F25D97FC376AA76A1D082C7
:1038C00096AA5EF2AED927705D9DDCCFB87E9B7C58
:1038D0009715F111B93B7A2D87D946B93A321D4374
:1038E00034733DB575347DD52E065BDEF1733F0034
:1038F000A4C5A8ABD5583A23B72ED3DBA5E9CDA2F2
:10390000D3234DDA5678DE0FF41A7F75C9770AE9AA
:103910002AEA249E790C92C8E2E7B89C9252DDEE26
:10392000B5373AC92AAB267CF3C84B9CF79F11CF19
:103930009AF2DEF436E9A95A787DC748FC950F184B
:103940006BB9673CC26929B9C9084CECE4F6E9EDEA
:10395000C4BA0746412FF146FE87CC7C56CFD356DA
:10396000C89CE81C631C6DE5B75C73588E93A7F682
:103970008B6D310388B5C7E4B6AD8290434CD91E38
:10398000170B247B5A2A928EF67AD1C4238BBD2D35
:10399000E5807D560370AF8E8E17D235BC75B04C66
:1039A000E7D396F40566372AF6C14F3B8C80425A1E
:1039B000707C8E16B48049257BAA1E7ED9C48FF4F4
:1039C0008E8B9A34C93324D2B4F2327862970F9135
:1039D00084C933FF00093C98165F1413D55FE81CB7
:1039E0003FE1984B5FBAF134E45DCC390377732B38
:1039F00032D2F019EF34918FBD2827EAA3B914D43D
:103A00002D94BCFC1BCE958238181A300370A64C3E
:103A100018000F9272D88FCE652CB6C1C9B9484A2A
:103A200069E6A4A839349D90E4D715201C7651B8D6
:103A3000A09513CAB1023CA85C52BCA89C558862F0
:103A400038A85EFDD2BDCABBDC84183768BA1A2D0F
:103A500040D756D006C57468EA70251EA7CD68BA4F
:103A6000DA49E86AA4A7AA89D0CD1BB05AE1823E00
:103A70001E6BA95EF58F6A8D3B6DD414FC35B18148
:103A800030FE9CEDD9EDF9F50B455A870FA65D1E6A
:103A9000E78DF2F2D3FF00A76F31F9F839D50B2B80
:103AA000D49A1EE96773E58A23574A0FF522DDC0D1
:103AB0007AB7F758A1041208C11B1DB042DF19A93B
:103AC000747D6D5A8AEF8EE83C82108563A82108C8
:103AD0004008426BE46C6DCBDCD60F32856538C391
:103AE000990AAB57D647491E5DBC9D1A39AF3EBAFD
:103AF000F01B9653024FE23C978D2C8E9642F7BBFB
:103B000024A83E73C8F9F8569C34FCCBE7D90EA91B
:103B10009DF5331924393D3D1448421F1B39CAC94C
:103B20003949E5B04210840244A842A08489500F6C
:103B30008217D44EC8206F1CAF706B47A9E4B2CB7C
:103B4000BE87ABA67DAE1A191953555E09653E7046
:103B5000EE11B779E4D667E6BCFD0F1364BFB38CF2
:103B6000E0B237B9A4FDD38C656EDD234C2E1DA2C7
:103B7000EA87967DA53D432DF08FF97130600FC81F
:103B80009587C9EAE5A4D3BB22B2FA2219B2D69F1F
:103B900048C62D9D83DCAAE804D517582291E32D51
:103BA000681B13E40AC3B5EE95BA68EA5A5B7D5404
:103BB0002EEE2671964A968F0CAFFBADF40D1F5278
:103BC000E257675B218E3A7712DC46D6F001FDADF5
:103BD0005ACBB6A829AB74955C12C6DE3642F99A68
:103BE0007F01F787E8BC38792D453B656CB39E1A99
:103BF000C7F435CAA51472521039633918FDD22F93
:103C0000AA338A8424402A10840084210021084099
:103C10000910950A9DD2C3BA95A5400ECA4615E46F
:103C20001B09DA548D50B4A91A501334A90150B4A9
:103C3000A782849334A91A540D2A4057324B0D2978
:103C4000F81C2720107982A061D94CC3B6FC901CC7
:103C500071DB6E943A6B595608A32DA4A82EA98542
:103C6000DD3046E3EAB545637BB393CF9AECEFE2F0
:103C70000F4D36F7A224AD8981D576FF00B40E1C16
:103C8000CB0FBE3FFCBE4B8EEEAC3DF9691B818570
:103C9000C9AC33E874B77AB4FDD1E4789E73D3AA83
:103CA00046C9C5235BBB40E9E6A594707807350893
:103CB0001E30AC5649A7F72C7126129067254AC8CA
:103CC000CB90EDB9C8883492BD3B750BA777886C53
:103CD000AE59ED125548DDB6F82CA5BEC7668C97D7
:103CE000359354B7945CC33FD5FE1437835E9E85ED
:103CF0009CCCF77435B596DB63E6B916C300792D15
:103D000073F6CABB75D6F1427BAB647DE06EDC4FC7
:103D10006F856035B70ABB832396B262E76E00CF2A
:103D200085A3A0014513C93E239C05C1C72F2CF5CF
:103D300063671B63D1EBDD2EB5770938AA6525A72C
:103D400070C68C00AFD8DC488892D3C5E6B1B2FE0D
:103D500025EB5A252CC6E98E098CB0F2CD8F40F8A0
:103D6000CC6D68183E8B6076654BED3A819203C44A
:103D7000D8585E4FA9E4B525155BBC21877F45BEA9
:103D8000BB1FA1315AE6AB78C19486B4FC1456BE71
:103D9000A38797BD57A597DF8FE26C34D72094D2C5
:103DA000775A8F82025372873B0A3739495C8E718A
:103DB000F25139C91CE51B9CAC4012A37B923DDB40
:103DC000A85EE562320F76EA291FCD35EF55DEF4A5
:103DD00002BDEA07B923DCA07BB7402BDCA17B90B6
:103DE000F7281EE402B9CBC4BBE9BB45D49755D133
:103DF000C5DE1FBEC1C2EFAAF5F89309452C747544
:103E0000AEC9D6F309619AFEBBB34A67B8BA86B6A3
:103E100048867DD907105E3CDD9BDC5A4F77554EB6
:103E2000F6FAE42DAF94D72E8B5135EE7A15F97D45
:103E3000543FF6CFE4D4A3B39BAE47DB537FE22BD2
:103E40001AD6F6B9749FB1B6A5EC9DF521CE686778
:103E500021C38FF2B7EAD2DFC413B35D646F94322B
:103E60001FFCCD5DE9BE73924C9B7CEEAB1C35FC18
:103E70000D7535E6677F49AD667E6579F34F24EEB3
:103E8000CCAF2F3FA28D0B69E45FADBEFF00FC926B
:103E90006C44A8421981084215042108010912A0A6
:103EA000112A12203D1B0D73682ED04EF0EEE8E56E
:103EB000B270F30D76C48F92DD74D779EC5A8C6AA8
:103EC000FA188D55BAA9AC6DD2383C4E85E3004D39
:103ED0008EAD70EBD32B41AC934C6AEB8D8246F7E1
:103EE000123DCC66CCF11E260F207911E60ECB9543
:103EF000F447515BAA651EEAE7BE2758507687A7AC
:103F00002B6D42482EF4AD80B41E17BB85C07915C9
:103F1000A47B62ED1292E91D4DBACD377E2738960B
:103F200066FBAD60FBAD3D72B50D7D4BAB6BAA6B17
:103F3000240DEF2791D2BB0D03DE39DB603AF45537
:103F4000D7950F0D156295926F6F38FF009F9344C0
:103F5000AD724084255ED1404895085410912A16D0
:103F60000421085444A8488012A12203B95A548D50
:103F70002A0053DA57906C2C35CA46B9560E4F6951
:103F80004059053DAE55C14F6B90165AE5334AAACC
:103F9000D7291AE504969A548D72AAD7291AE424CF
:103FA0009A68A3A9824826607C5234B1ED3F78110B
:103FB000821719F6C3A25FA5354398C697504C7B6C
:103FC000D824E85A4F2F92ECA6B962DDA5E908354E
:103FD000969C96888636AD997D3C98C61F8F74FC5A
:103FE00057368D5A3D43AA7CF4704BDBDE48F79F71
:103FF00032026B598C2CD2FBA2EE367AC9292B697E
:104000006585EC241E26EDCF983E4A94161E1907AE
:104010007AF007979AA64F72356FFA91E35251BE24
:1040200067B835BB79ACAF4EE969EE1550C14F0B9F
:10403000A499FC9AC6E4959BF67FD9BDCF524ED386
:104040004F03E92DEDC715448DC67E1E6BA5F46E9A
:104050008CB5696A50CA3883EA081DE4EFDDCE3FAB
:10406000B27645FABAB4EB8E5985F669D94D2D9ED4
:1040700028AB6F31B65AB003990F36B7D4F995A172
:104080003B63B2FF0023ED175044C1C314EF6D54DE
:104090005B601E2E7FBAED6CFA2D13FC4E697F6BB0
:1040A000B5536A1A56FDA52E229B1F7A32763F22FF
:1040B0008D7062D2EB273D46EB1F0CE6B8DC452C39
:1040C00063878B0494E6BB0338F92829992775C4C4
:1040D000384B5DD01DF9A95E49193F05CF07D2C500
:1040E000F0481D9395E8D149C232BC96AF4A91AED3
:1040F0007100213BCCC748C0FAEAD60038B7C00BE4
:10410000ACF4F500B5D9A929073630717ABB995AB4
:1041100053B0ED3465AB6D54CDFB2A7C38FF00AB5A
:10412000985BE49C7A6360AF5C79C9E079BD4EED41
:10413000B4FC72FF0022929A5DBA6B9CA3739753F2
:10414000C01EF7289CE4D73944E7A903DCF50BE44B
:10415000DD24926CA07BB7562A3DF26EA17BD35E24
:10416000E503DCA40E7B940F726BDDBA89EE504838
:104170003DCA07BB743DCA1250915EE5138A5715BC
:104180001B8A01729A4A44655490CA69290F348483
:10419000EEAC40BC58DD690EDFA4CDEED517E0A62D
:1041A00077FEBFFD96EEE6B42F6E73779AC2167E49
:1041B0000A560FAE4AEFA65F59C6CE8D7295085EBD
:1041C00089C4108420042108541084216112A1089C
:1041D0000108421504212216042542150489508045
:1041E0001225420112A108044A8420042108010872
:1041F0004203B74393DA5429CD2BC736E09C14F021
:104200005400A782A4827695234AAE0A7B4A02CB49
:104210004A91A556695234A02CB5CA46B9566B933B
:10422000C394125A695235EAA35CA40E42492AA9E2
:1042300029AB63E1ACA68676E3189180AF262D23E7
:10424000A763A8EFA3B35109739CF7417AAD7291AC
:10425000AE55C16539AE992C2D6C4C0C8D8D631B00
:10426000B0006000A4CA83892F1AA95C93E563DDBE
:10427000A15AC5EF44DEA8384174D4AFE0CFE2C103
:1042800023F45EE0912F103B3B97542D096D699FFD
:104290003E9AC959E273486B72D3F11909D8F0E319
:1042A000C9CB35ED26C66C5AD6F76FE1C406533438
:1042B00059E587F887EBF92C38B705C3CC85C5F6E7
:1042C0007DB51352AD3F912369276E6B31D236878E
:1042D000D5D545E0E2C9000F33958F5B294CF3013A
:1042E0008E670BA1BB1DD37FEF22B666663A6F7750
:1042F000D5FE7F250F9E1136DB1A6B774BD8D9DAA6
:1043000046CEDB1D961A6C625238A43E6E217B0E9F
:10431000704C73B651B9CB4258583E26EB5DB3731F
:1043200097B8F2E4C739465CA37BD5CE591CF76E2B
:10433000A27BD46F9140F937E68091F26EA27C9B0C
:10434000A8DEF5139C8091F2281EFDD35CE51B9C32
:10435000848AF7281EEDD0F7289C50907BB75193A4
:10436000BA095193BA01EE2A33CD2E522A9209117D
:1043700094655881AE4895265080236DD739F6C193
:10438000389F5ED7E0FF004DAC8FE8D0BA306E5753
:104390002DEB7A9F6CD5B779C9D9D50EFD70B4E9EC
:1043A00057D471B3A3C34A912ADE720421080108CD
:1043B00042004210854108488054244A8010912AC6
:1043C000004244A801091080542442015084200472
:1043D0002108010910805421080ED7CA702989725A
:1043E000BC73712029E0A88724AD2809C14F6B95C3
:1043F0007CA702854B21C9E1CAB0727B5C80B2D731
:10440000291AE554393C39016C393839556B948196
:10441000C80B2D729039540E4F0E4192CF12771A5D
:10442000AE1DB23890B167BC4AD93E4AB71A3BC4F8
:1044300023260BDAD68266AA81B5B44D0DB9D347CF
:10444000DD86FF00CC673E13EBE4B9C6B74FD4D28C
:10445000D53E1A885F1CAD710410BB278D452C30EA
:104460004CF0E9A085EE1C8BD809FCF75C9D79E443
:10447000F5347E51E9E3B24B28E72D01A16E15F327
:10448000C4F6D339B093E299C385AC1D71E65745A4
:104490005A68A1B5D043494ED0D6463FF11F3537B3
:1044A000106B4068C01B600C0C269915A35A8F270F
:1044B0002D6F919EABE96B0899CF513A451BA450E3
:1044C000BE4573CF26748A07C8A27C9BA85F2202D0
:1044D00047C8A2748A2748A32E4182473946E298EA
:1044E000E728CB90B0F73946E724739465C8057187
:1044F00051928253094004A693BA094C2554915C09
:104500009329328CAB102A1203B2328403922121F8
:104510004248AB2510524F33B946C73FE832B92E57
:10452000A2433D54B3139748F713F324AE97ED0E0F
:10453000B3D8345DD65CEE62318F8B8E17320FD4D8
:1045400064FD56CD2AE1B385AC10842D870042105E
:1045500085810842004210854108420042108010C7
:104560008488054210801084200424420150842055
:104570000421080109108054212203B50734F421D5
:1045800078E6E1CD4E421430095A842903DA9508C1
:1045900042A3DAA442100E6A91A84201ED4F6A10BC
:1045A00080542108071E4842100A90F22842151034
:1045B0009384C721085D91389C285E50842085DC57
:1045C0008A89C842018E5139084248CF34D7210820
:1045D00048D7262108069E69AE421500D3CD4679FC
:1045E000A10A4021085600950842A2210850C94658
:1045F000BFEDB9EE6E8B7869C0353167EA568142FE
:1046000017A3A6FD0CCF676084216828084210021A
:10461000108400842100244210025421002108400B
:1046200022542100210840084210020734210021B1
:10463000084008421000E684210A9FFFD9000000CC
:104640002F53544D3332463778782E68746D6C0092
:10465000485454502F312E3020323030204F4B0DE3
:104660000A5365727665723A206C7749502F312E65
:10467000332E312028687474703A2F2F736176615D
:104680006E6E61682E6E6F6E676E752E6F72672F1D
:1046900070726F6A656374732F6C776970290D0A85
:1046A000436F6E74656E742D747970653A2074650D
:1046B00078742F68746D6C0D0A0D0A3C21444F43C9
:1046C000545950452048544D4C205055424C494374
:1046D00020222D2F2F5733432F2F4454442048544A
:1046E0004D4C20342E3031205472616E73697469E0
:1046F0006F6E616C2F2F454E223E0A3C68746D6CC4
:1047000020786D6C6E733A763D2275726E3A7363E3
:1047100068656D61732D6D6963726F736F66742D5B
:10472000636F6D3A766D6C2220786D6C6E733A6FA4
:104730003D2275726E3A736368656D61732D6D69A4
:1047400063726F736F66742D636F6D3A6F6666691F
:1047500063653A6F66666963652220786D6C6E7377
:104760003A773D2275726E3A736368656D61732D99
:104770006D6963726F736F66742D636F6D3A6F66E8
:10478000666963653A776F72642220786D6C6E7328
:104790003D22687474703A2F2F7777772E77332EF7
:1047A0006F72672F54522F5245432D68746D6C34CD
:1047B00030223E3C686561643E0D0A3C6D65746163
:1047C00020687474702D65717569763D22436F6E33
:1047D00074656E742D547970652220636F6E7465F4
:1047E0006E743D22746578742F68746D6C3B206321
:1047F0006861727365743D69736F2D383835392D72
:1048000031223E0D0A3C6C696E6B2072656C3D2254
:1048100046696C652D4C6973742220687265663D2B
:104820002253544D3332463778785F66696C65732E
:104830002F66696C656C6973742E786D6C223E0D01
:104840000A3C6C696E6B2072656C3D22456469742C
:104850002D54696D652D446174612220687265660E
:104860003D2253544D3332463778785F66696C6524
:10487000732F65646974646174612E6D736F223E79
:104880003C7469746C653E53544D333246377878C6
:104890003C2F7469746C653E0D0A0D0A3C2F6865E7
:1048A00061643E0D0A3C626F6479207374796C65B3
:1048B0003D2222206C616E673D22454E2D555322CC
:1048C000206C696E6B3D22626C75652220766C6986
:1048D0006E6B3D22626C7565223E0D0A3C64697602
:1048E00020636C6173733D2253656374696F6E312D
:1048F000223E0D0A3C646976207374796C653D2212
:104900006D617267696E2D6C6566743A2033307024
:10491000743B223E0D0A3C7020636C6173733D2230
:104920004D736F4E6F726D616C22207374796C657C
:104930003D22746578742D616C69676E3A206365F9
:104940006E7465723B2220616C69676E3D226365FF
:104950006E746572223E3C696D6720616C743D2205
:10496000222069643D225F78303030305F69313019
:10497000323522207372633D2253544D3332463711
:1049800078785F66696C65732F53542E6769662269
:10499000207374796C653D22626F726465723A208F
:1049A00030707820736F6C6964203B207769647481
:1049B000683A2037363670783B20686569676874D6
:1049C0003A20353870783B223E3C623E3C693E3CA2
:1049D0007370616E207374796C653D22666F6E74BE
:1049E0002D73697A653A20323470743B223E3C6202
:1049F000723E0D0A3C7374726F6E673E53544D33B2
:104A00003246377878205765627365727665722012
:104A100044656D6F3C2F7374726F6E673E3C2F73ED
:104A200070616E3E3C2F693E3C2F623E3C7370616C
:104A30006E207374796C653D22666F6E742D736998
:104A40007A653A2031332E3570743B223E203C2F5C
:104A50007370616E3E3C623E3C7370616E20737495
:104A6000796C653D22666F6E742D73697A653A20A4
:104A7000313870743B20666F6E742D66616D696CA1
:104A8000793A2056657264616E613B20636F6C6F8A
:104A9000723A207267622835312C2035312C203251
:104AA0003535293B223E3C62723E0D0A42617365F8
:104AB00064206F6E20746865206C774950205443E1
:104AC000502F495020737461636B203C2F737061C9
:104AD0006E3E3C2F623E3C2F703E0D0A3C64697670
:104AE00020636C6173733D224D736F4E6F726D6105
:104AF0006C22207374796C653D22746578742D6125
:104B00006C69676E3A2063656E7465723B22206142
:104B10006C69676E3D2263656E746572223E0D0A94
:104B20003C687220616C69676E3D2263656E7465D6
:104B300072222073697A653D22322220776964747B
:104B4000683D2231303025223E3C2F6469763E0D8F
:104B50000A3C64697620616C69676E3D2263656E0C
:104B6000746572223E3C7370616E207374796C655B
:104B70003D22666F6E742D7765696768743A2062AE
:104B80006F6C643B223E3C2F7370616E3E3C7370D1
:104B9000616E207374796C653D22666F6E742D773B
:104BA00065696768743A20626F6C643B223E3C2FF3
:104BB0007370616E3E0D0A3C7461626C65207374A3
:104BC000796C653D2277696474683A2039363170B2
:104BD000783B206865696768743A20333070783BA9
:104BE0002220626F726465723D2231222063656CFF
:104BF0006C70616464696E673D2232222063656C6B
:104C00006C73706163696E673D2232223E0D0A3C0F
:104C100074626F64793E0D0A3C74723E0D0A3C74F6
:104C200064207374796C653D22666F6E742D6661C5
:104C30006D696C793A2056657264616E613B2066DD
:104C40006F6E742D7765696768743A20626F6C6463
:104C50003B20666F6E742D7374796C653A206974AD
:104C6000616C69633B206261636B67726F756E6430
:104C70002D636F6C6F723A207267622835312C2079
:104C800035312C20323535293B20746578742D61FF
:104C90006C69676E3A2063656E7465723B223E3CB8
:104CA000736D616C6C3E3C6120687265663D222FBD
:104CB00053544D3332463778782E68746D6C223EEB
:104CC0003C7370616E207374796C653D22636F6C08
:104CD0006F723A2077686974653B223E486F6D6554
:104CE0000D0A706167653C2F7370616E3E3C2F61E9
:104CF0003E3C2F736D616C6C3E3C2F74643E0D0A1C
:104D00003C7464207374796C653D22666F6E742DFB
:104D100066616D696C793A2056657264616E613BBB
:104D200020666F6E742D7765696768743A20626FCC
:104D30006C643B20666F6E742D7374796C653A20D9
:104D40006974616C69633B206261636B67726F7544
:104D50006E642D636F6C6F723A2072676228353112
:104D60002C2035312C20323535293B207465787460
:104D70002D616C69676E3A2063656E7465723B22C3
:104D80003E3C6120687265663D2253544D33324685
:104D90003778784144432E68746D6C223E3C7370C2
:104DA000616E207374796C653D22666F6E742D7729
:104DB00065696768743A20626F6C643B223E3C2FE1
:104DC0007370616E3E3C2F613E3C736D616C6C3E56
:104DD0003C6120687265663D222F53544D33324644
:104DE0003778785441534B532E68746D6C223E3C97
:104DF0007370616E207374796C653D22636F6C6FA4
:104E0000723A2077686974653B223E4C6973740D71
:104E10000A6F66207461736B733C2F7370616E3E12
:104E20003C2F613E3C2F736D616C6C3E3C2F746473
:104E30003E0D0A3C2F74723E0D0A3C2F74626F6463
:104E4000793E0D0A3C2F7461626C653E0D0A3C2F61
:104E50006469763E0D0A3C64697620616C69676E10
:104E60003D2263656E746572223E0D0A3C74616278
:104E70006C6520636C6173733D224D736F4E6F726E
:104E80006D616C5461626C6522207374796C653D50
:104E9000226261636B67726F756E643A207768692E
:104EA0007465206E6F6E6520726570656174207325
:104EB00063726F6C6C203025203530253B202D6DC2
:104EC0006F7A2D6261636B67726F756E642D636CB0
:104ED00069703A20696E697469616C3B202D6D6F51
:104EE0007A2D6261636B67726F756E642D6F726984
:104EF00067696E3A20696E697469616C3B202D6D3B
:104F00006F7A2D6261636B67726F756E642D696E67
:104F10006C696E652D706F6C6963793A20696E6992
:104F20007469616C3B2077696474683A2035373462
:104F30002E3570743B2220626F726465723D2230A0
:104F4000222063656C6C70616464696E673D223019
:104F5000222063656C6C73706163696E673D2230FB
:104F6000222077696474683D22373636223E0D0A66
:104F70003C74626F64793E0D0A3C747220737479DC
:104F80006C653D22223E0D0A3C7464207374796C7A
:104F9000653D2270616464696E673A2030636D3BE1
:104FA000222076616C69676E3D22746F70223E0D1F
:104FB0000A3C7461626C6520636C6173733D224DC1
:104FC000736F4E6F726D616C5461626C65222073F9
:104FD00074796C653D2277696474683A20313030A9
:104FE000253B2220626F726465723D22302220636D
:104FF000656C6C70616464696E673D223022206369
:10500000656C6C73706163696E673D223022207736
:10501000696474683D2231303025223E0D0A3C74AB
:10502000626F64793E0D0A3C7472207374796C650A
:105030003D22223E0D0A3C7464207374796C653DF8
:105040002270616464696E673A20322E3235707462
:105050003B223E0D0A3C7461626C6520626F726493
:1050600065723D2230222063656C6C7061646469F6
:105070006E673D2233222063656C6C7370616369D7
:105080006E673D2230222077696474683D2231309A
:105090003025223E0D0A3C74626F64793E0D0A3C55
:1050A00074723E0D0A3C74642076616C69676E3DD3
:1050B00022746F70222077696474683D223732252C
:1050C000223E0D0A3C68313E3C7370616E20737461
:1050D000796C653D22636F6C6F723A20726762284B
:1050E00035312C2035312C20323535293B223E53A9
:1050F000544D33320D0A462D37205365726965735E
:105100003C2F7370616E3E3C2F68313E0D0A3C703F
:1051100020636C6173733D224D736F4E6F726D61CE
:105120006C223E3C7370616E207374796C653D2215
:10513000666F6E742D73697A653A20313070743BF6
:1051400020666F6E742D66616D696C793A205665C4
:105150007264616E613B223E5468652053544D3346
:105160003220463720646576696365732061726515
:105170002074686520776F726C642773206669728B
:1051800073742041524D20436F727465782D4D37F2
:105190002062617365642033322D626974206D6909
:1051A00063726F636F6E74726F6C6C6572732C20B8
:1051B00073657474696E67207468652062656E63D8
:1051C000686D61726B20696E20706572666F726DBA
:1051D000616E63652E3C62723E0A3C62723E0A5406
:1051E000616B696E6720616476616E7461676520CA
:1051F0006F662053542773204152542041636365E6
:105200006C657261746F722061732077656C6C20BD
:10521000617320616E204C312063616368652C20CE
:105220007468652053544D333220463720646576C8
:10523000696365732064656C69766572207468655E
:10524000206D6178696D756D207468656F72657425
:105250006963616C20706572666F726D616E636503
:10526000206F662074686520436F727465782D4DD9
:1052700037206E6F206D6174746572207768657475
:1052800068657220636F6465206973206578656363
:10529000757465642066726F6D20656D6265646407
:1052A000656420466C617368206F72206578746550
:1052B000726E616C204D656D6F72793A20313030BD
:1052C0003020436F72654D61726B2F343238204449
:1052D0004D49505320617420323030204D487A209F
:1052E000664350553C62723E0D0A3C62723E0D0AA6
:1052F0003C61207374796C653D22666F6E742D7706
:1053000065696768743A20626F6C643B222068723A
:1053100065663D22687474703A2F2F7777772E7305
:10532000742E636F6D2F636F6E74656E742F73745C
:105330005F636F6D2F656E2F70726F64756374732A
:105340002F6D6963726F636F6E74726F6C6C6572D0
:10535000732F73746D33322D33322D6269742D6166
:10536000726D2D636F727465782D6D6375732F7315
:10537000746D333266372D7365726965732E687488
:105380006D6C22207461726765743D225F626C618E
:105390006E6B223E5468652053544D333246377845
:1053A0007820686F6D6520706167653C2F613E3CB9
:1053B0002F7370616E3E3C2F74643E0D0A3C746422
:1053C0002077696474683D223225223E3C2F746444
:1053D0003E0D0A3C746420616C69676E3D227269FF
:1053E000676874222076616C69676E3D22746F7005
:1053F000222077696474683D22323625223E3C6261
:10540000723E0D0A3C62723E0D0A3C696D67207364
:1054100074796C653D2277696474683A2034303061
:1054200070783B206865696768743A20313830705D
:10543000783B2220616C743D2222207372633D22EE
:1054400053544D3332463778785F66696C65732FF5
:1054500073746D33322E6A7067223E3C2F74643E43
:105460000D0A3C2F74723E0D0A3C2F74626F6479F2
:105470003E0D0A3C2F7461626C653E0D0A3C2F7430
:10548000643E0D0A3C2F74723E0D0A3C7472207308
:1054900074796C653D22223E0D0A3C74642073745D
:1054A000796C653D2270616464696E673A20322EC2
:1054B000323570743B223E0D0A3C7020636C617380
:1054C000733D224D736F4E6F726D616C223E3C6F67
:1054D0003A703E266E6273703B3C2F6F3A703E3CD2
:1054E0002F703E0D0A3C2F74643E0D0A3C2F7472DF
:1054F0003E0D0A3C7472207374796C653D22223E25
:105500000D0A3C7464207374796C653D227061648B
:1055100064696E673A20322E323570743B222076F1
:10552000616C69676E3D22746F70223E0D0A3C7497
:1055300061626C6520636C6173733D224D736F4EC5
:105540006F726D616C5461626C6522207374796C4A
:10555000653D2277696474683A203530372E34709F
:10556000743B2220626F726465723D223022206398
:10557000656C6C70616464696E673D2230222063E3
:10558000656C6C73706163696E673D2230222077B1
:10559000696474683D22363737223E0D0A3C7462D6
:1055A0006F64793E0D0A3C7472207374796C653DAA
:1055B00022223E0D0A3C7464207374796C653D228E
:1055C00070616464696E673A20322E323570743BC4
:1055D000206261636B67726F756E643A20726762F6
:1055E0002835312C2035312C2032353529206E6F6D
:1055F0006E6520726570656174207363726F6C6C88
:10560000203025203530253B202D6D6F7A2D6261AD
:10561000636B67726F756E642D636C69703A206995
:105620006E697469616C3B202D6D6F7A2D626163C8
:105630006B67726F756E642D6F726967696E3A2061
:10564000696E697469616C3B202D6D6F7A2D6261A2
:10565000636B67726F756E642D696E6C696E652D14
:10566000706F6C6963793A20696E697469616C3B2B
:105670002077696474683A203530342E3270743B78
:10568000222077696474683D22363732223E0D0A43
:105690003C7020636C6173733D224D736F4E6F726B
:1056A0006D616C223E3C7370616E207374796C6521
:1056B0003D22636F6C6F723A2077686974653B2294
:1056C0003E266E6273703B3C2F7370616E3E3C737E
:1056D00074726F6E673E3C7370616E207374796C88
:1056E000653D22666F6E742D66616D696C793A2036
:1056F00056657264616E613B20636F6C6F723A2015
:1057000077686974653B223E41626F7574207468E6
:1057100069730D0A64656D6F6E7374726174696F7D
:105720006E3C2F7370616E3E3C2F7374726F6E67A8
:105730003E3C7370616E207374796C653D22666FB8
:105740006E742D66616D696C793A2056657264617C
:105750006E613B20636F6C6F723A20776869746585
:105760003B223E3C6F3A703E3C2F6F3A703E3C2FDE
:105770007370616E3E3C2F703E0D0A3C2F74643E88
:105780000D0A3C7464207374796C653D22626F72FB
:105790006465723A206D656469756D206E6F6E6523
:1057A000203B2070616464696E673A2030636D3B12
:1057B000222077696474683D2234223E0D0A3C70D1
:1057C00020636C6173733D224D736F4E6F726D6118
:1057D0006C223E266E6273703B3C2F703E0D0A3C7D
:1057E0002F74643E0D0A3C2F74723E0D0A3C747295
:1057F000207374796C653D226865696768743A2026
:1058000031312E323570743B223E0D0A3C746420D7
:105810007374796C653D2270616464696E673A20C7
:10582000322E323570743B2077696474683A2035C3
:1058300030342E3270743B206865696768743A2092
:1058400031312E323570743B222076616C69676E7F
:105850003D22746F70222077696474683D22363768
:1058600032223E0D0A3C7020636C6173733D224D01
:10587000736F4E6F726D616C223E3C7370616E206F
:105880007374796C653D22666F6E742D73697A65E9
:105890003A20313070743B20666F6E742D66616DF6
:1058A000696C793A2056657264616E613B223E54A0
:1058B0006869730D0A77656273657276657220692F
:1058C0007320612070617274206F662061206465AE
:1058D0006D6F6E7374726174696F6E207061636B4B
:1058E00061676520646576656C6F706564206F6EB6
:1058F0002074686520746F700D0A6C6576656C2085
:105900006F6620746865206C774950205443502F8F
:10591000495020737461636B2E203C62723E0D0A05
:105920003C62723E0D0A546865207061636B61676A
:105930006520636F6E7461696E73206E696E652099
:105940006170706C69636174696F6E733A3C2F7338
:1059500070616E3E3C2F703E0D0A3C6F6C3E0D0A2E
:105960003C6C693E3C7370616E207374796C653D6C
:1059700022666F6E742D73697A653A2031307074C7
:105980003B20666F6E742D66616D696C793A2056A6
:10599000657264616E613B223E4170706C69636147
:1059A00074696F6E730D0A72756E6E696E67206929
:1059B0006E207374616E64616C6F6E652028776908
:1059C00074686F757420616E2052544F53293A3CAD
:1059D0002F7370616E3E3C2F6C693E0D0A3C2F6F39
:1059E0006C3E0D0A3C756C207374796C653D226DBC
:1059F000617267696E2D6C6566743A203430707818
:105A00003B223E0D0A3C6C693E3C7370616E207314
:105A100074796C653D22666F6E742D73697A653A90
:105A200020313070743B20666F6E742D66616D6935
:105A30006C793A2056657264616E613B223E410D7D
:105A40000A5765627365727665722E266E62737090
:105A50003B3C6F3A703E3C2F6F3A703E3C2F737068
:105A6000616E3E3C2F6C693E0D0A3C6C693E3C7396
:105A700070616E207374796C653D22666F6E742D53
:105A800073697A653A20313070743B20666F6E74AA
:105A90002D66616D696C793A2056657264616E613C
:105AA0003B223E4120544654502073657276657205
:105AB0002E3C2F7370616E3E3C2F6C693E0D0A3C8C
:105AC0006C693E3C7370616E207374796C653D2225
:105AD000666F6E742D73697A653A20313070743B4D
